{
  "transactions": [
    {
      "hash": "0x16dffdf2f94cf1570362e08db159504582bc430f9f079ab6a49f1f55eecba524",
      "transactionType": "CALL",
      "contractName": null,
      "contractAddress": "0x044a8172a9e9a5732a3ad1b3385013f4ddcd7d2d",
      "function": "approve(address,uint256)",
      "arguments": [
        "0xC532a74256D3Db42D0Bf7a0400fEFDbad7694008",
        "1000000000000000000000"
      ],
      "transaction": {
        "from": "0xc48e3fc74f7fcec688a19589e0f36b8f121edfce",
        "to": "0x044a8172a9e9a5732a3ad1b3385013f4ddcd7d2d",
        "gas": "0x105fe",
        "value": "0x0",
        "input": "0x095ea7b3000000000000000000000000c532a74256d3db42d0bf7a0400fefdbad769400800000000000000000000000000000000000000000000003635c9adc5dea00000",
        "nonce": "0x23",
        "chainId": "0xaa36a7"
      },
      "additionalContracts": [],
      "isFixedGasLimit": false
    },
    {
      "hash": "0xe823cccf2d10620f5f44545ed261af27dfd31b4b596b52026929b5a657aab783",
      "transactionType": "CALL",
      "contractName": null,
      "contractAddress": "0xbf88fd58b7e44d1ee04f7a2c73add15e74b38fb5",
      "function": "approve(address,uint256)",
      "arguments": [
        "0xC532a74256D3Db42D0Bf7a0400fEFDbad7694008",
        "1000000000000000000000"
      ],
      "transaction": {
        "from": "0xc48e3fc74f7fcec688a19589e0f36b8f121edfce",
        "to": "0xbf88fd58b7e44d1ee04f7a2c73add15e74b38fb5",
        "gas": "0x105fe",
        "value": "0x0",
        "input": "0x095ea7b3000000000000000000000000c532a74256d3db42d0bf7a0400fefdbad769400800000000000000000000000000000000000000000000003635c9adc5dea00000",
        "nonce": "0x24",
        "chainId": "0xaa36a7"
      },
      "additionalContracts": [],
      "isFixedGasLimit": false
    },
    {
      "hash": "0x8ce707f0550a121ca0c15209c621b42e82c06a56b7b714754845a69b2ac1b01e",
      "transactionType": "CALL",
      "contractName": null,
      "contractAddress": "0x17d88f10916a398131c248ae5c025ce93809c3f5",
      "function": "deposit()",
      "arguments": [],
      "transaction": {
        "from": "0xc48e3fc74f7fcec688a19589e0f36b8f121edfce",
        "to": "0x17d88f10916a398131c248ae5c025ce93809c3f5",
        "gas": "0xa699",
        "value": "0x354a6ba7a18000",
        "input": "0xd0e30db0",
        "nonce": "0x25",
        "chainId": "0xaa36a7"
      },
      "additionalContracts": [],
      "isFixedGasLimit": false
    },
    {
      "hash": "0xd2ddb0b325f97a1684b8890f9f58209423c4ea287b288186e06fef2a9d5a282a",
      "transactionType": "CALL",
      "contractName": null,
      "contractAddress": "0xc532a74256d3db42d0bf7a0400fefdbad7694008",
      "function": "addLiquidityETH(address,uint256,uint256,uint256,address,uint256)",
      "arguments": [
        "0x044A8172a9e9A5732A3aD1B3385013f4dDCD7D2d",
        "10000000000000000000",
        "0",
        "0",
        "0xC48E3fc74f7fCec688A19589E0F36b8f121eDfce",
        "1773225468"
      ],
      "transaction": {
        "from": "0xc48e3fc74f7fcec688a19589e0f36b8f121edfce",
        "to": "0xc532a74256d3db42d0bf7a0400fefdbad7694008",
        "gas": "0x414f3",
        "value": "0x2386f26fc10000",
        "input": "0xf305d719000000000000000000000000044a8172a9e9a5732a3ad1b3385013f4ddcd7d2d0000000000000000000000000000000000000000000000008ac7230489e8000000000000000000000000000000000000000000000000000000000000000000000000000000000000000000000000000000000000000000000000000000000000000000000000000000000000c48e3fc74f7fcec688a19589e0f36b8f121edfce0000000000000000000000000000000000000000000000000000000069b145fc",
        "nonce": "0x26",
        "chainId": "0xaa36a7"
      },
      "additionalContracts": [],
      "isFixedGasLimit": false
    },
    {
      "hash": "0xcfb0e5d7a60a635047db438a2062fa464e2581c83fcaf8fe7e6c5c83c2869d38",
      "transactionType": "CALL",
      "contractName": null,
      "contractAddress": "0x17d88f10916a398131c248ae5c025ce93809c3f5",
      "function": "deposit()",
      "arguments": [],
      "transaction": {
        "from": "0xc48e3fc74f7fcec688a19589e0f36b8f121edfce",
        "to": "0x17d88f10916a398131c248ae5c025ce93809c3f5",
        "gas": "0xa699",
        "value": "0x354a6ba7a18000",
        "input": "0xd0e30db0",
        "nonce": "0x27",
        "chainId": "0xaa36a7"
      },
      "additionalContracts": [],
      "isFixedGasLimit": false
    },
    {
      "hash": "0x66b7c31d54f05fcdb5af2d2e0e189a512b021d574e528a8738f082fd69b745a3",
      "transactionType": "CALL",
      "contractName": null,
      "contractAddress": "0xc532a74256d3db42d0bf7a0400fefdbad7694008",
      "function": "addLiquidityETH(address,uint256,uint256,uint256,address,uint256)",
      "arguments": [
        "0xBf88Fd58B7e44d1eE04F7a2C73adD15E74b38FB5",
        "10000000000000000000",
        "0",
        "0",
        "0xC48E3fc74f7fCec688A19589E0F36b8f121eDfce",
        "1773225468"
      ],
      "transaction": {
        "from": "0xc48e3fc74f7fcec688a19589e0f36b8f121edfce",
        "to": "0xc532a74256d3db42d0bf7a0400fefdbad7694008",
        "gas": "0x4152a",
        "value": "0x2386f26fc10000",
        "input": "0xf305d719000000000000000000000000bf88fd58b7e44d1ee04f7a2c73add15e74b38fb50000000000000000000000000000000000000000000000008ac7230489e8000000000000000000000000000000000000000000000000000000000000000000000000000000000000000000000000000000000000000000000000000000000000000000000000000000000000c48e3fc74f7fcec688a19589e0f36b8f121edfce0000000000000000000000000000000000000000000000000000000069b145fc",
        "nonce": "0x28",
        "chainId": "0xaa36a7"
      },
      "additionalContracts": [],
      "isFixedGasLimit": false
    }
  ],
  "receipts": [
    {
      "status": "0x1",
      "cumulativeGasUsed": "0x86aee3",
      "logs": [
        {
          "address": "0x044a8172a9e9a5732a3ad1b3385013f4ddcd7d2d",
          "topics": [
            "0x8c5be1e5ebec7d5bd14f71427d1e84f3dd0314c0f7b2291e5b200ac8c7c3b925",
            "0x000000000000000000000000c48e3fc74f7fcec688a19589e0f36b8f121edfce",
            "0x000000000000000000000000c532a74256d3db42d0bf7a0400fefdbad7694008"
          ],
          "data": "0x00000000000000000000000000000000000000000000003635c9adc5dea00000",
          "blockHash": "0x1271efeb044b1d107207e91b325f234f3e4ef55382559bc2d254c84a993ecb95",
          "blockNumber": "0x9f16a9",
          "blockTimestamp": "0x69b13828",
          "transactionHash": "0xe823cccf2d10620f5f44545ed261af27dfd31b4b596b52026929b5a657aab783",
          "transactionIndex": "0x46",
          "logIndex": "0xa6",
          "removed": false
        }
      ],
      "logsBloom": "0x00000000000000000000000000000000000000000000000002020000000800000000000000000000000000000000000000000000000000000000000000200000000000000000000000000000000000000000000004000000000000000000000000000000000000000000000000040000000000000000010000000000000000000000000000000000000000000000000000000000000000000000000000000000020000000000000000000000000000000000000000000000000000000000000000000100000000000000000004000000000000000000000000000000000000000010000000000000100000000000000000000000000000000000000000000000",
      "type": "0x2",
      "transactionHash": "0xe823cccf2d10620f5f44545ed261af27dfd31b4b596b52026929b5a657aab783",
      "transactionIndex": "0x46",
      "blockHash": "0x1271efeb044b1d107207e91b325f234f3e4ef55382559bc2d254c84a993ecb95",
      "blockNumber": "0x9f16a9",
      "gasUsed": "0xbdaf",
      "effectiveGasPrice": "0x14997c",
      "from": "0xc48e3fc74f7fcec688a19589e0f36b8f121edfce",
      "to": "0x044a8172a9e9a5732a3ad1b3385013f4ddcd7d2d",
      "contractAddress": null
    },
    {
      "status": "0x1",
      "cumulativeGasUsed": "0x876c92",
      "logs": [
        {
          "address": "0xbf88fd58b7e44d1ee04f7a2c73add15e74b38fb5",
          "topics": [
            "0x8c5be1e5ebec7d5bd14f71427d1e84f3dd0314c0f7b2291e5b200ac8c7c3b925",
            "0x000000000000000000000000c48e3fc74f7fcec688a19589e0f36b8f121edfce",
            "0x000000000000000000000000c532a74256d3db42d0bf7a0400fefdbad7694008"
          ],
          "data": "0x00000000000000000000000000000000000000000000003635c9adc5dea00000",
          "blockHash": "0x1271efeb044b1d107207e91b325f234f3e4ef55382559bc2d254c84a993ecb95",
          "blockNumber": "0x9f16a9",
          "blockTimestamp": "0x69b13828",
          "transactionHash": "0xcfb0e5d7a60a635047db438a2062fa464e2581c83fcaf8fe7e6c5c83c2869d38",
          "transactionIndex": "0x47",
          "logIndex": "0xa7",
          "removed": false
        }
      ],
      "logsBloom": "0x00000000000000000000000000000010000000000000000002000000000800000000000000000000000000000000000000000000000000000000000000200000000000000000000000000000000000000000000000000000000000000000000000000000000000000000000000040000000000000000010000000000000000000000000000000000000000000000000000000000000000000000000000000000020000000000000000000000000000000000000000000000000000000000000000000100000000000000000004000000000000000000000000000000000000000010000000000000000010000000000000000000000000000000000000001000",
      "type": "0x2",
      "transactionHash": "0xcfb0e5d7a60a635047db438a2062fa464e2581c83fcaf8fe7e6c5c83c2869d38",
      "transactionIndex": "0x47",
      "blockHash": "0x1271efeb044b1d107207e91b325f234f3e4ef55382559bc2d254c84a993ecb95",
      "blockNumber": "0x9f16a9",
      "gasUsed": "0xbdaf",
      "effectiveGasPrice": "0x14997c",
      "from": "0xc48e3fc74f7fcec688a19589e0f36b8f121edfce",
      "to": "0xbf88fd58b7e44d1ee04f7a2c73add15e74b38fb5",
      "contractAddress": null
    },
    {
      "status": "0x1",
      "cumulativeGasUsed": "0x87de7c",
      "logs": [
        {
          "address": "0x17d88f10916a398131c248ae5c025ce93809c3f5",
          "topics": [
            "0xe1fffcc4923d04b559f4d29a8bfc6cda04eb5b0d3c460751c2402c5c5cc9109c",
            "0x000000000000000000000000c48e3fc74f7fcec688a19589e0f36b8f121edfce"
          ],
          "data": "0x00000000000000000000000000000000000000000000000000354a6ba7a18000",
          "blockHash": "0x1271efeb044b1d107207e91b325f234f3e4ef55382559bc2d254c84a993ecb95",
          "blockNumber": "0x9f16a9",
          "blockTimestamp": "0x69b13828",
          "transactionHash": "0xd2ddb0b325f97a1684b8890f9f58209423c4ea287b288186e06fef2a9d5a282a",
          "transactionIndex": "0x48",
          "logIndex": "0xa8",
          "removed": false
        }
      ],
      "logsBloom": "0x00000000000000000000000000000008000000000000000002000000000000000000000000000000000000000000000000000000000000000000000000000000000000000000000000000000000000000000000000000000000000008000000000000000000400000000000000000000000000000000010000000000000000000000000000000000000000000000000000000001000000000000000000000000000000000000000000000000000000000000000000000000000000000004000000000000000000000000000004000000000000000000000000000000000000000000000000000000000000000000000000000000000000400000000000000000",
      "type": "0x2",
      "transactionHash": "0xd2ddb0b325f97a1684b8890f9f58209423c4ea287b288186e06fef2a9d5a282a",
      "transactionIndex": "0x48",
      "blockHash": "0x1271efeb044b1d107207e91b325f234f3e4ef55382559bc2d254c84a993ecb95",
      "blockNumber": "0x9f16a9",
      "gasUsed": "0x71ea",
      "effectiveGasPrice": "0x14997c",
      "from": "0xc48e3fc74f7fcec688a19589e0f36b8f121edfce",
      "to": "0x17d88f10916a398131c248ae5c025ce93809c3f5",
      "contractAddress": null
    },
    {
      "status": "0x1",
      "cumulativeGasUsed": "0x8ad303",
      "logs": [
        {
          "address": "0x044a8172a9e9a5732a3ad1b3385013f4ddcd7d2d",
          "topics": [
            "0xddf252ad1be2c89b69c2b068fc378daa952ba7f163c4a11628f55a4df523b3ef",
            "0x000000000000000000000000c48e3fc74f7fcec688a19589e0f36b8f121edfce",
            "0x000000000000000000000000dcc1ecc92b203cd96f41d910bb38082ee7af4c5d"
          ],
          "data": "0x0000000000000000000000000000000000000000000000008ac7230489e80000",
          "blockHash": "0x1271efeb044b1d107207e91b325f234f3e4ef55382559bc2d254c84a993ecb95",
          "blockNumber": "0x9f16a9",
          "blockTimestamp": "0x69b13828",
          "transactionHash": "0x8ce707f0550a121ca0c15209c621b42e82c06a56b7b714754845a69b2ac1b01e",
          "transactionIndex": "0x49",
          "logIndex": "0xa9",
          "removed": false
        },
        {
          "address": "0x7b79995e5f793a07bc00c21412e50ecae098e7f9",
          "topics": [
            "0xe1fffcc4923d04b559f4d29a8bfc6cda04eb5b0d3c460751c2402c5c5cc9109c",
            "0x000000000000000000000000c532a74256d3db42d0bf7a0400fefdbad7694008"
          ],
          "data": "0x00000000000000000000000000000000000000000000000000005af3107a4000",
          "blockHash": "0x1271efeb044b1d107207e91b325f234f3e4ef55382559bc2d254c84a993ecb95",
          "blockNumber": "0x9f16a9",
          "blockTimestamp": "0x69b13828",
          "transactionHash": "0x8ce707f0550a121ca0c15209c621b42e82c06a56b7b714754845a69b2ac1b01e",
          "transactionIndex": "0x49",
          "logIndex": "0xaa",
          "removed": false
        },
        {
          "address": "0x7b79995e5f793a07bc00c21412e50ecae098e7f9",
          "topics": [
            "0xddf252ad1be2c89b69c2b068fc378daa952ba7f163c4a11628f55a4df523b3ef",
            "0x000000000000000000000000c532a74256d3db42d0bf7a0400fefdbad7694008",
            "0x000000000000000000000000dcc1ecc92b203cd96f41d910bb38082ee7af4c5d"
          ],
          "data": "0x00000000000000000000000000000000000000000000000000005af3107a4000",
          "blockHash": "0x1271efeb044b1d107207e91b325f234f3e4ef55382559bc2d254c84a993ecb95",
          "blockNumber": "0x9f16a9",
          "blockTimestamp": "0x69b13828",
          "transactionHash": "0x8ce707f0550a121ca0c15209c621b42e82c06a56b7b714754845a69b2ac1b01e",
          "transactionIndex": "0x49",
          "logIndex": "0xab",
          "removed": false
        },
        {
          "address": "0xdcc1ecc92b203cd96f41d910bb38082ee7af4c5d",
          "topics": [
            "0xddf252ad1be2c89b69c2b068fc378daa952ba7f163c4a11628f55a4df523b3ef",
            "0x0000000000000000000000000000000000000000000000000000000000000000",
            "0x000000000000000000000000c48e3fc74f7fcec688a19589e0f36b8f121edfce"
          ],
          "data": "0x000000000000000000000000000000000000000000000000007058bf6e27a751",
          "blockHash": "0x1271efeb044b1d107207e91b325f234f3e4ef55382559bc2d254c84a993ecb95",
          "blockNumber": "0x9f16a9",
          "blockTimestamp": "0x69b13828",
          "transactionHash": "0x8ce707f0550a121ca0c15209c621b42e82c06a56b7b714754845a69b2ac1b01e",
          "transactionIndex": "0x49",
          "logIndex": "0xac",
          "removed": false
        },
        {
          "address": "0xdcc1ecc92b203cd96f41d910bb38082ee7af4c5d",
          "topics": [
            "0x1c411e9a96e071241c2f21f7726b17ae89e3cab4c78be50e062b03a9fffbbad1"
          ],
          "data": "0x000000000000000000000000000000000000000000000036c090d0ca688800000000000000000000000000000000000000000000000000000023e1e5803b4000",
          "blockHash": "0x1271efeb044b1d107207e91b325f234f3e4ef55382559bc2d254c84a993ecb95",
          "blockNumber": "0x9f16a9",
          "blockTimestamp": "0x69b13828",
          "transactionHash": "0x8ce707f0550a121ca0c15209c621b42e82c06a56b7b714754845a69b2ac1b01e",
          "transactionIndex": "0x49",
          "logIndex": "0xad",
          "removed": false
        },
        {
          "address": "0xdcc1ecc92b203cd96f41d910bb38082ee7af4c5d",
          "topics": [
            "0x4c209b5fc8ad50758f13e2e1088ba56a560dff690a1c6fef26394f4c03821c4f",
            "0x000000000000000000000000c532a74256d3db42d0bf7a0400fefdbad7694008"
          ],
          "data": "0x0000000000000000000000000000000000000000000000008ac7230489e8000000000000000000000000000000000000000000000000000000005af3107a4000",
          "blockHash": "0x1271efeb044b1d107207e91b325f234f3e4ef55382559bc2d254c84a993ecb95",
          "blockNumber": "0x9f16a9",
          "blockTimestamp": "0x69b13828",
          "transactionHash": "0x8ce707f0550a121ca0c15209c621b42e82c06a56b7b714754845a69b2ac1b01e",
          "transactionIndex": "0x49",
          "logIndex": "0xae",
          "removed": false
        }
      ],
      "logsBloom": "0x00000000000000000000000080000000000000000000000002020004000801000000000000000400000000000000000000000000000000000000000000000000000000000000000000002008000000000000000004000000000000008000000000000000020000000000000000040800000000000008010000000010000000000000000000000000000000000000000000000001000000080800000000000000000002000000000000000000000000080000000000000000000000000008000000000102000000000000000004020000000080000000001000000000000020000000000000000000100000000000000000000000000000400000000000000000",
      "type": "0x2",
      "transactionHash": "0x8ce707f0550a121ca0c15209c621b42e82c06a56b7b714754845a69b2ac1b01e",
      "transactionIndex": "0x49",
      "blockHash": "0x1271efeb044b1d107207e91b325f234f3e4ef55382559bc2d254c84a993ecb95",
      "blockNumber": "0x9f16a9",
      "gasUsed": "0x2f487",
      "effectiveGasPrice": "0x14997c",
      "from": "0xc48e3fc74f7fcec688a19589e0f36b8f121edfce",
      "to": "0xc532a74256d3db42d0bf7a0400fefdbad7694008",
      "contractAddress": null
    },
    {
      "status": "0x1",
      "cumulativeGasUsed": "0x8b44ed",
      "logs": [
        {
          "address": "0x17d88f10916a398131c248ae5c025ce93809c3f5",
          "topics": [
            "0xe1fffcc4923d04b559f4d29a8bfc6cda04eb5b0d3c460751c2402c5c5cc9109c",
            "0x000000000000000000000000c48e3fc74f7fcec688a19589e0f36b8f121edfce"
          ],
          "data": "0x00000000000000000000000000000000000000000000000000354a6ba7a18000",
          "blockHash": "0x1271efeb044b1d107207e91b325f234f3e4ef55382559bc2d254c84a993ecb95",
          "blockNumber": "0x9f16a9",
          "blockTimestamp": "0x69b13828",
          "transactionHash": "0x16dffdf2f94cf1570362e08db159504582bc430f9f079ab6a49f1f55eecba524",
          "transactionIndex": "0x4a",
          "logIndex": "0xaf",
          "removed": false
        }
      ],
      "logsBloom": "0x00000000000000000000000000000008000000000000000002000000000000000000000000000000000000000000000000000000000000000000000000000000000000000000000000000000000000000000000000000000000000008000000000000000000400000000000000000000000000000000010000000000000000000000000000000000000000000000000000000001000000000000000000000000000000000000000000000000000000000000000000000000000000000004000000000000000000000000000004000000000000000000000000000000000000000000000000000000000000000000000000000000000000400000000000000000",
      "type": "0x2",
      "transactionHash": "0x16dffdf2f94cf1570362e08db159504582bc430f9f079ab6a49f1f55eecba524",
      "transactionIndex": "0x4a",
      "blockHash": "0x1271efeb044b1d107207e91b325f234f3e4ef55382559bc2d254c84a993ecb95",
      "blockNumber": "0x9f16a9",
      "gasUsed": "0x71ea",
      "effectiveGasPrice": "0x14997c",
      "from": "0xc48e3fc74f7fcec688a19589e0f36b8f121edfce",
      "to": "0x17d88f10916a398131c248ae5c025ce93809c3f5",
      "contractAddress": null
    },
    {
      "status": "0x1",
      "cumulativeGasUsed": "0x8e399c",
      "logs": [
        {
          "address": "0xbf88fd58b7e44d1ee04f7a2c73add15e74b38fb5",
          "topics": [
            "0xddf252ad1be2c89b69c2b068fc378daa952ba7f163c4a11628f55a4df523b3ef",
            "0x000000000000000000000000c48e3fc74f7fcec688a19589e0f36b8f121edfce",
            "0x000000000000000000000000ba17af7066fd8fb198a7e15b62856a77ab16a53f"
          ],
          "data": "0x0000000000000000000000000000000000000000000000008ac7230489e80000",
          "blockHash": "0x1271efeb044b1d107207e91b325f234f3e4ef55382559bc2d254c84a993ecb95",
          "blockNumber": "0x9f16a9",
          "blockTimestamp": "0x69b13828",
          "transactionHash": "0x66b7c31d54f05fcdb5af2d2e0e189a512b021d574e528a8738f082fd69b745a3",
          "transactionIndex": "0x4b",
          "logIndex": "0xb0",
          "removed": false
        },
        {
          "address": "0x7b79995e5f793a07bc00c21412e50ecae098e7f9",
          "topics": [
            "0xe1fffcc4923d04b559f4d29a8bfc6cda04eb5b0d3c460751c2402c5c5cc9109c",
            "0x000000000000000000000000c532a74256d3db42d0bf7a0400fefdbad7694008"
          ],
          "data": "0x00000000000000000000000000000000000000000000000000005af3107a4000",
          "blockHash": "0x1271efeb044b1d107207e91b325f234f3e4ef55382559bc2d254c84a993ecb95",
          "blockNumber": "0x9f16a9",
          "blockTimestamp": "0x69b13828",
          "transactionHash": "0x66b7c31d54f05fcdb5af2d2e0e189a512b021d574e528a8738f082fd69b745a3",
          "transactionIndex": "0x4b",
          "logIndex": "0xb1",
          "removed": false
        },
        {
          "address": "0x7b79995e5f793a07bc00c21412e50ecae098e7f9",
          "topics": [
            "0xddf252ad1be2c89b69c2b068fc378daa952ba7f163c4a11628f55a4df523b3ef",
            "0x000000000000000000000000c532a74256d3db42d0bf7a0400fefdbad7694008",
            "0x000000000000000000000000ba17af7066fd8fb198a7e15b62856a77ab16a53f"
          ],
          "data": "0x00000000000000000000000000000000000000000000000000005af3107a4000",
          "blockHash": "0x1271efeb044b1d107207e91b325f234f3e4ef55382559bc2d254c84a993ecb95",
          "blockNumber": "0x9f16a9",
          "blockTimestamp": "0x69b13828",
          "transactionHash": "0x66b7c31d54f05fcdb5af2d2e0e189a512b021d574e528a8738f082fd69b745a3",
          "transactionIndex": "0x4b",
          "logIndex": "0xb2",
          "removed": false
        },
        {
          "address": "0xba17af7066fd8fb198a7e15b62856a77ab16a53f",
          "topics": [
            "0xddf252ad1be2c89b69c2b068fc378daa952ba7f163c4a11628f55a4df523b3ef",
            "0x0000000000000000000000000000000000000000000000000000000000000000",
            "0x000000000000000000000000c48e3fc74f7fcec688a19589e0f36b8f121edfce"
          ],
          "data": "0x000000000000000000000000000000000000000000000000007058bf6e27a751",
          "blockHash": "0x1271efeb044b1d107207e91b325f234f3e4ef55382559bc2d254c84a993ecb95",
          "blockNumber": "0x9f16a9",
          "blockTimestamp": "0x69b13828",
          "transactionHash": "0x66b7c31d54f05fcdb5af2d2e0e189a512b021d574e528a8738f082fd69b745a3",
          "transactionIndex": "0x4b",
          "logIndex": "0xb3",
          "removed": false
        },
        {
          "address": "0xba17af7066fd8fb198a7e15b62856a77ab16a53f",
          "topics": [
            "0x1c411e9a96e071241c2f21f7726b17ae89e3cab4c78be50e062b03a9fffbbad1"
          ],
          "data": "0x0000000000000000000000000000000000000000000000000023e1e5803b4000000000000000000000000000000000000000000000000036c090d0ca68880000",
          "blockHash": "0x1271efeb044b1d107207e91b325f234f3e4ef55382559bc2d254c84a993ecb95",
          "blockNumber": "0x9f16a9",
          "blockTimestamp": "0x69b13828",
          "transactionHash": "0x66b7c31d54f05fcdb5af2d2e0e189a512b021d574e528a8738f082fd69b745a3",
          "transactionIndex": "0x4b",
          "logIndex": "0xb4",
          "removed": false
        },
        {
          "address": "0xba17af7066fd8fb198a7e15b62856a77ab16a53f",
          "topics": [
            "0x4c209b5fc8ad50758f13e2e1088ba56a560dff690a1c6fef26394f4c03821c4f",
            "0x000000000000000000000000c532a74256d3db42d0bf7a0400fefdbad7694008"
          ],
          "data": "0x00000000000000000000000000000000000000000000000000005af3107a40000000000000000000000000000000000000000000000000008ac7230489e80000",
          "blockHash": "0x1271efeb044b1d107207e91b325f234f3e4ef55382559bc2d254c84a993ecb95",
          "blockNumber": "0x9f16a9",
          "blockTimestamp": "0x69b13828",
          "transactionHash": "0x66b7c31d54f05fcdb5af2d2e0e189a512b021d574e528a8738f082fd69b745a3",
          "transactionIndex": "0x4b",
          "logIndex": "0xb5",
          "removed": false
        }
      ],
      "logsBloom": "0x00000000000000000000000080000010008000000000000002000004000801000000000000000000000080000000000000000000000000000000000000000000000000000000000000000008000000000000000000000000000000008000000000000000020000000000000000040800000000000008010000000010000000000000008000000000000000000000000000000001040000080000000000000000000100000000000000000000000000080000000000400000000000000000000000000102000000000000000004020000000000000000001000000000000020000000000000000000000010000000000000000000000000400000000000001000",
      "type": "0x2",
      "transactionHash": "0x66b7c31d54f05fcdb5af2d2e0e189a512b021d574e528a8738f082fd69b745a3",
      "transactionIndex": "0x4b",
      "blockHash": "0x1271efeb044b1d107207e91b325f234f3e4ef55382559bc2d254c84a993ecb95",
      "blockNumber": "0x9f16a9",
      "gasUsed": "0x2f4af",
      "effectiveGasPrice": "0x14997c",
      "from": "0xc48e3fc74f7fcec688a19589e0f36b8f121edfce",
      "to": "0xc532a74256d3db42d0bf7a0400fefdbad7694008",
      "contractAddress": null
    }
  ],
  "libraries": [],
  "pending": [],
  "returns": {},
  "timestamp": 1773221930031,
  "chain": 11155111,
  "commit": "1eb1c86"
}