{
  "transactions": [
    {
      "hash": "0x232123fdc51f915fb515cea3be40ea28799dc9cf569b6b7b859cb43a8c351d42",
      "transactionType": "CALL",
      "contractName": null,
      "contractAddress": "0x044a8172a9e9a5732a3ad1b3385013f4ddcd7d2d",
      "function": "approve(address,uint256)",
      "arguments": [
        "0xC532a74256D3Db42D0Bf7a0400fEFDbad7694008",
        "10000000000000000000"
      ],
      "transaction": {
        "from": "0xc48e3fc74f7fcec688a19589e0f36b8f121edfce",
        "to": "0x044a8172a9e9a5732a3ad1b3385013f4ddcd7d2d",
        "gas": "0x11557",
        "value": "0x0",
        "input": "0x095ea7b3000000000000000000000000c532a74256d3db42d0bf7a0400fefdbad76940080000000000000000000000000000000000000000000000008ac7230489e80000",
        "nonce": "0x2c",
        "chainId": "0xaa36a7"
      },
      "additionalContracts": [],
      "isFixedGasLimit": false
    },
    {
      "hash": "0xfd0c605b69bfa7edce06f3912302fe25400155356f8a2c4cf34e98a402711ed3",
      "transactionType": "CALL",
      "contractName": null,
      "contractAddress": "0xc532a74256d3db42d0bf7a0400fefdbad7694008",
      "function": "addLiquidityETH(address,uint256,uint256,uint256,address,uint256)",
      "arguments": [
        "0x044A8172a9e9A5732A3aD1B3385013f4dDCD7D2d",
        "10000000000000000000",
        "0",
        "0",
        "0xC48E3fc74f7fCec688A19589E0F36b8f121eDfce",
        "1773230556"
      ],
      "transaction": {
        "from": "0xc48e3fc74f7fcec688a19589e0f36b8f121edfce",
        "to": "0xc532a74256d3db42d0bf7a0400fefdbad7694008",
        "gas": "0x34159",
        "value": "0x2386f26fc10000",
        "input": "0xf305d719000000000000000000000000044a8172a9e9a5732a3ad1b3385013f4ddcd7d2d0000000000000000000000000000000000000000000000008ac7230489e8000000000000000000000000000000000000000000000000000000000000000000000000000000000000000000000000000000000000000000000000000000000000000000000000000000000000c48e3fc74f7fcec688a19589e0f36b8f121edfce0000000000000000000000000000000000000000000000000000000069b159dc",
        "nonce": "0x2d",
        "chainId": "0xaa36a7"
      },
      "additionalContracts": [],
      "isFixedGasLimit": false
    }
  ],
  "receipts": [
    {
      "status": "0x1",
      "cumulativeGasUsed": "0x2752bf0",
      "logs": [
        {
          "address": "0x044a8172a9e9a5732a3ad1b3385013f4ddcd7d2d",
          "topics": [
            "0x8c5be1e5ebec7d5bd14f71427d1e84f3dd0314c0f7b2291e5b200ac8c7c3b925",
            "0x000000000000000000000000c48e3fc74f7fcec688a19589e0f36b8f121edfce",
            "0x000000000000000000000000c532a74256d3db42d0bf7a0400fefdbad7694008"
          ],
          "data": "0x0000000000000000000000000000000000000000000000008ac7230489e80000",
          "blockHash": "0x12d0c2ab680b2323f82569c727789224b8c121e4015ef6e46a7032d8197bb81a",
          "blockNumber": "0x9f17ff",
          "blockTimestamp": "0x69b14c14",
          "transactionHash": "0xfd0c605b69bfa7edce06f3912302fe25400155356f8a2c4cf34e98a402711ed3",
          "transactionIndex": "0xd6",
          "logIndex": "0x1b0",
          "removed": false
        }
      ],
      "logsBloom": "0x00000000000000000000000000000000000000000000000002020000000800000000000000000000000000000000000000000000000000000000000000200000000000000000000000000000000000000000000004000000000000000000000000000000000000000000000000040000000000000000010000000000000000000000000000000000000000000000000000000000000000000000000000000000020000000000000000000000000000000000000000000000000000000000000000000100000000000000000004000000000000000000000000000000000000000010000000000000100000000000000000000000000000000000000000000000",
      "type": "0x2",
      "transactionHash": "0xfd0c605b69bfa7edce06f3912302fe25400155356f8a2c4cf34e98a402711ed3",
      "transactionIndex": "0xd6",
      "blockHash": "0x12d0c2ab680b2323f82569c727789224b8c121e4015ef6e46a7032d8197bb81a",
      "blockNumber": "0x9f17ff",
      "gasUsed": "0xbda3",
      "effectiveGasPrice": "0xf424c",
      "from": "0xc48e3fc74f7fcec688a19589e0f36b8f121edfce",
      "to": "0x044a8172a9e9a5732a3ad1b3385013f4ddcd7d2d",
      "contractAddress": null
    },
    {
      "status": "0x1",
      "cumulativeGasUsed": "0x2778745",
      "logs": [
        {
          "address": "0x044a8172a9e9a5732a3ad1b3385013f4ddcd7d2d",
          "topics": [
            "0xddf252ad1be2c89b69c2b068fc378daa952ba7f163c4a11628f55a4df523b3ef",
            "0x000000000000000000000000c48e3fc74f7fcec688a19589e0f36b8f121edfce",
            "0x000000000000000000000000dcc1ecc92b203cd96f41d910bb38082ee7af4c5d"
          ],
          "data": "0x0000000000000000000000000000000000000000000000008ac7230489e80000",
          "blockHash": "0x12d0c2ab680b2323f82569c727789224b8c121e4015ef6e46a7032d8197bb81a",
          "blockNumber": "0x9f17ff",
          "blockTimestamp": "0x69b14c14",
          "transactionHash": "0x232123fdc51f915fb515cea3be40ea28799dc9cf569b6b7b859cb43a8c351d42",
          "transactionIndex": "0xd7",
          "logIndex": "0x1b1",
          "removed": false
        },
        {
          "address": "0x7b79995e5f793a07bc00c21412e50ecae098e7f9",
          "topics": [
            "0xe1fffcc4923d04b559f4d29a8bfc6cda04eb5b0d3c460751c2402c5c5cc9109c",
            "0x000000000000000000000000c532a74256d3db42d0bf7a0400fefdbad7694008"
          ],
          "data": "0x00000000000000000000000000000000000000000000000000005af3107a4000",
          "blockHash": "0x12d0c2ab680b2323f82569c727789224b8c121e4015ef6e46a7032d8197bb81a",
          "blockNumber": "0x9f17ff",
          "blockTimestamp": "0x69b14c14",
          "transactionHash": "0x232123fdc51f915fb515cea3be40ea28799dc9cf569b6b7b859cb43a8c351d42",
          "transactionIndex": "0xd7",
          "logIndex": "0x1b2",
          "removed": false
        },
        {
          "address": "0x7b79995e5f793a07bc00c21412e50ecae098e7f9",
          "topics": [
            "0xddf252ad1be2c89b69c2b068fc378daa952ba7f163c4a11628f55a4df523b3ef",
            "0x000000000000000000000000c532a74256d3db42d0bf7a0400fefdbad7694008",
            "0x000000000000000000000000dcc1ecc92b203cd96f41d910bb38082ee7af4c5d"
          ],
          "data": "0x00000000000000000000000000000000000000000000000000005af3107a4000",
          "blockHash": "0x12d0c2ab680b2323f82569c727789224b8c121e4015ef6e46a7032d8197bb81a",
          "blockNumber": "0x9f17ff",
          "blockTimestamp": "0x69b14c14",
          "transactionHash": "0x232123fdc51f915fb515cea3be40ea28799dc9cf569b6b7b859cb43a8c351d42",
          "transactionIndex": "0xd7",
          "logIndex": "0x1b3",
          "removed": false
        },
        {
          "address": "0xdcc1ecc92b203cd96f41d910bb38082ee7af4c5d",
          "topics": [
            "0xddf252ad1be2c89b69c2b068fc378daa952ba7f163c4a11628f55a4df523b3ef",
            "0x0000000000000000000000000000000000000000000000000000000000000000",
            "0x000000000000000000000000c48e3fc74f7fcec688a19589e0f36b8f121edfce"
          ],
          "data": "0x000000000000000000000000000000000000000000000000007058bf6e27a751",
          "blockHash": "0x12d0c2ab680b2323f82569c727789224b8c121e4015ef6e46a7032d8197bb81a",
          "blockNumber": "0x9f17ff",
          "blockTimestamp": "0x69b14c14",
          "transactionHash": "0x232123fdc51f915fb515cea3be40ea28799dc9cf569b6b7b859cb43a8c351d42",
          "transactionIndex": "0xd7",
          "logIndex": "0x1b4",
          "removed": false
        },
        {
          "address": "0xdcc1ecc92b203cd96f41d910bb38082ee7af4c5d",
          "topics": [
            "0x1c411e9a96e071241c2f21f7726b17ae89e3cab4c78be50e062b03a9fffbbad1"
          ],
          "data": "0x000000000000000000000000000000000000000000000037d61f16d37c580000000000000000000000000000000000000000000000000000002497cba12fc000",
          "blockHash": "0x12d0c2ab680b2323f82569c727789224b8c121e4015ef6e46a7032d8197bb81a",
          "blockNumber": "0x9f17ff",
          "blockTimestamp": "0x69b14c14",
          "transactionHash": "0x232123fdc51f915fb515cea3be40ea28799dc9cf569b6b7b859cb43a8c351d42",
          "transactionIndex": "0xd7",
          "logIndex": "0x1b5",
          "removed": false
        },
        {
          "address": "0xdcc1ecc92b203cd96f41d910bb38082ee7af4c5d",
          "topics": [
            "0x4c209b5fc8ad50758f13e2e1088ba56a560dff690a1c6fef26394f4c03821c4f",
            "0x000000000000000000000000c532a74256d3db42d0bf7a0400fefdbad7694008"
          ],
          "data": "0x0000000000000000000000000000000000000000000000008ac7230489e8000000000000000000000000000000000000000000000000000000005af3107a4000",
          "blockHash": "0x12d0c2ab680b2323f82569c727789224b8c121e4015ef6e46a7032d8197bb81a",
          "blockNumber": "0x9f17ff",
          "blockTimestamp": "0x69b14c14",
          "transactionHash": "0x232123fdc51f915fb515cea3be40ea28799dc9cf569b6b7b859cb43a8c351d42",
          "transactionIndex": "0xd7",
          "logIndex": "0x1b6",
          "removed": false
        }
      ],
      "logsBloom": "0x00000000000000000000000080000000000000000000000002020004000801000000000000000400000000000000000000000000000000000000000000000000000000000000000000002008000000000000000004000000000000008000000000000000020000000000000000040800000000000008010000000010000000000000000000000000000000000000000000000001000000080800000000000000000002000000000000000000000000080000000000000000000000000008000000000102000000000000000004020000000080000000001000000000000020000000000000000000100000000000000000000000000000400000000000000000",
      "type": "0x2",
      "transactionHash": "0x232123fdc51f915fb515cea3be40ea28799dc9cf569b6b7b859cb43a8c351d42",
      "transactionIndex": "0xd7",
      "blockHash": "0x12d0c2ab680b2323f82569c727789224b8c121e4015ef6e46a7032d8197bb81a",
      "blockNumber": "0x9f17ff",
      "gasUsed": "0x25b55",
      "effectiveGasPrice": "0xf424c",
      "from": "0xc48e3fc74f7fcec688a19589e0f36b8f121edfce",
      "to": "0xc532a74256d3db42d0bf7a0400fefdbad7694008",
      "contractAddress": null
    }
  ],
  "libraries": [],
  "pending": [],
  "returns": {},
  "timestamp": 1773227030792,
  "chain": 11155111,
  "commit": "1eb1c86"
}