{
  "transactions": [
    {
      "hash": "0x26fb78c0979c2dbbac825ad41f9ab73f82838c5e9114af4b3fd84b1e40d85b5a",
      "transactionType": "CALL",
      "contractName": null,
      "contractAddress": "0x044a8172a9e9a5732a3ad1b3385013f4ddcd7d2d",
      "function": "approve(address,uint256)",
      "arguments": [
        "0xC532a74256D3Db42D0Bf7a0400fEFDbad7694008",
        "10000000000000000000000"
      ],
      "transaction": {
        "from": "0xc48e3fc74f7fcec688a19589e0f36b8f121edfce",
        "to": "0x044a8172a9e9a5732a3ad1b3385013f4ddcd7d2d",
        "gas": "0x1157a",
        "value": "0x0",
        "input": "0x095ea7b3000000000000000000000000c532a74256d3db42d0bf7a0400fefdbad769400800000000000000000000000000000000000000000000021e19e0c9bab2400000",
        "nonce": "0x3e",
        "chainId": "0xaa36a7"
      },
      "additionalContracts": [],
      "isFixedGasLimit": false
    },
    {
      "hash": "0x960c749da2f4ee5d05e2b6674c43161caaa546d2e185eadc64ba3515460006a5",
      "transactionType": "CALL",
      "contractName": null,
      "contractAddress": "0xc532a74256d3db42d0bf7a0400fefdbad7694008",
      "function": "addLiquidityETH(address,uint256,uint256,uint256,address,uint256)",
      "arguments": [
        "0x044A8172a9e9A5732A3aD1B3385013f4dDCD7D2d",
        "10000000000000000000000",
        "0",
        "0",
        "0xC48E3fc74f7fCec688A19589E0F36b8f121eDfce",
        "1773314160"
      ],
      "transaction": {
        "from": "0xc48e3fc74f7fcec688a19589e0f36b8f121edfce",
        "to": "0xc532a74256d3db42d0bf7a0400fefdbad7694008",
        "gas": "0x34a7f",
        "value": "0x16345785d8a0000",
        "input": "0xf305d719000000000000000000000000044a8172a9e9a5732a3ad1b3385013f4ddcd7d2d00000000000000000000000000000000000000000000021e19e0c9bab240000000000000000000000000000000000000000000000000000000000000000000000000000000000000000000000000000000000000000000000000000000000000000000000000000000000000c48e3fc74f7fcec688a19589e0f36b8f121edfce0000000000000000000000000000000000000000000000000000000069b2a070",
        "nonce": "0x3f",
        "chainId": "0xaa36a7"
      },
      "additionalContracts": [],
      "isFixedGasLimit": false
    }
  ],
  "receipts": [
    {
      "status": "0x1",
      "cumulativeGasUsed": "0x1c4eba0",
      "logs": [
        {
          "address": "0x044a8172a9e9a5732a3ad1b3385013f4ddcd7d2d",
          "topics": [
            "0x8c5be1e5ebec7d5bd14f71427d1e84f3dd0314c0f7b2291e5b200ac8c7c3b925",
            "0x000000000000000000000000c48e3fc74f7fcec688a19589e0f36b8f121edfce",
            "0x000000000000000000000000c532a74256d3db42d0bf7a0400fefdbad7694008"
          ],
          "data": "0x00000000000000000000000000000000000000000000021e19e0c9bab2400000",
          "blockHash": "0x1c1ee390ba05929c6f2a5cfd97c99e5505fb54260317acc3005cdfb2f1caa267",
          "blockNumber": "0x9f2f1d",
          "blockTimestamp": "0x69b29278",
          "transactionHash": "0x960c749da2f4ee5d05e2b6674c43161caaa546d2e185eadc64ba3515460006a5",
          "transactionIndex": "0xce",
          "logIndex": "0x254",
          "removed": false
        }
      ],
      "logsBloom": "0x00000000000000000000000000000000000000000000000002020000000800000000000000000000000000000000000000000000000000000000000000200000000000000000000000000000000000000000000004000000000000000000000000000000000000000000000000040000000000000000010000000000000000000000000000000000000000000000000000000000000000000000000000000000020000000000000000000000000000000000000000000000000000000000000000000100000000000000000004000000000000000000000000000000000000000010000000000000100000000000000000000000000000000000000000000000",
      "type": "0x2",
      "transactionHash": "0x960c749da2f4ee5d05e2b6674c43161caaa546d2e185eadc64ba3515460006a5",
      "transactionIndex": "0xce",
      "blockHash": "0x1c1ee390ba05929c6f2a5cfd97c99e5505fb54260317acc3005cdfb2f1caa267",
      "blockNumber": "0x9f2f1d",
      "gasUsed": "0xbdbb",
      "effectiveGasPrice": "0xf424c",
      "from": "0xc48e3fc74f7fcec688a19589e0f36b8f121edfce",
      "to": "0x044a8172a9e9a5732a3ad1b3385013f4ddcd7d2d",
      "contractAddress": null
    },
    {
      "status": "0x1",
      "cumulativeGasUsed": "0x1c72bb1",
      "logs": [
        {
          "address": "0x044a8172a9e9a5732a3ad1b3385013f4ddcd7d2d",
          "topics": [
            "0xddf252ad1be2c89b69c2b068fc378daa952ba7f163c4a11628f55a4df523b3ef",
            "0x000000000000000000000000c48e3fc74f7fcec688a19589e0f36b8f121edfce",
            "0x000000000000000000000000dcc1ecc92b203cd96f41d910bb38082ee7af4c5d"
          ],
          "data": "0x00000000000000000000000000000000000000000000021e19e0c9bab2400000",
          "blockHash": "0x1c1ee390ba05929c6f2a5cfd97c99e5505fb54260317acc3005cdfb2f1caa267",
          "blockNumber": "0x9f2f1d",
          "blockTimestamp": "0x69b29278",
          "transactionHash": "0x26fb78c0979c2dbbac825ad41f9ab73f82838c5e9114af4b3fd84b1e40d85b5a",
          "transactionIndex": "0xcf",
          "logIndex": "0x255",
          "removed": false
        },
        {
          "address": "0x7b79995e5f793a07bc00c21412e50ecae098e7f9",
          "topics": [
            "0xe1fffcc4923d04b559f4d29a8bfc6cda04eb5b0d3c460751c2402c5c5cc9109c",
            "0x000000000000000000000000c532a74256d3db42d0bf7a0400fefdbad7694008"
          ],
          "data": "0x000000000000000000000000000000000000000000000000016345785d8a0000",
          "blockHash": "0x1c1ee390ba05929c6f2a5cfd97c99e5505fb54260317acc3005cdfb2f1caa267",
          "blockNumber": "0x9f2f1d",
          "blockTimestamp": "0x69b29278",
          "transactionHash": "0x26fb78c0979c2dbbac825ad41f9ab73f82838c5e9114af4b3fd84b1e40d85b5a",
          "transactionIndex": "0xcf",
          "logIndex": "0x256",
          "removed": false
        },
        {
          "address": "0x7b79995e5f793a07bc00c21412e50ecae098e7f9",
          "topics": [
            "0xddf252ad1be2c89b69c2b068fc378daa952ba7f163c4a11628f55a4df523b3ef",
            "0x000000000000000000000000c532a74256d3db42d0bf7a0400fefdbad7694008",
            "0x000000000000000000000000dcc1ecc92b203cd96f41d910bb38082ee7af4c5d"
          ],
          "data": "0x000000000000000000000000000000000000000000000000016345785d8a0000",
          "blockHash": "0x1c1ee390ba05929c6f2a5cfd97c99e5505fb54260317acc3005cdfb2f1caa267",
          "blockNumber": "0x9f2f1d",
          "blockTimestamp": "0x69b29278",
          "transactionHash": "0x26fb78c0979c2dbbac825ad41f9ab73f82838c5e9114af4b3fd84b1e40d85b5a",
          "transactionIndex": "0xcf",
          "logIndex": "0x257",
          "removed": false
        },
        {
          "address": "0xdcc1ecc92b203cd96f41d910bb38082ee7af4c5d",
          "topics": [
            "0xddf252ad1be2c89b69c2b068fc378daa952ba7f163c4a11628f55a4df523b3ef",
            "0x0000000000000000000000000000000000000000000000000000000000000000",
            "0x000000000000000000000000c48e3fc74f7fcec688a19589e0f36b8f121edfce"
          ],
          "data": "0x000000000000000000000000000000000000000000000001b6daabc64ae59580",
          "blockHash": "0x1c1ee390ba05929c6f2a5cfd97c99e5505fb54260317acc3005cdfb2f1caa267",
          "blockNumber": "0x9f2f1d",
          "blockTimestamp": "0x69b29278",
          "transactionHash": "0x26fb78c0979c2dbbac825ad41f9ab73f82838c5e9114af4b3fd84b1e40d85b5a",
          "transactionIndex": "0xcf",
          "logIndex": "0x258",
          "removed": false
        },
        {
          "address": "0xdcc1ecc92b203cd96f41d910bb38082ee7af4c5d",
          "topics": [
            "0x1c411e9a96e071241c2f21f7726b17ae89e3cab4c78be50e062b03a9fffbbad1"
          ],
          "data": "0x00000000000000000000000000000000000000000000028c25c98e54a23af90000000000000000000000000000000000000000000000000001ab64366e7b21a8",
          "blockHash": "0x1c1ee390ba05929c6f2a5cfd97c99e5505fb54260317acc3005cdfb2f1caa267",
          "blockNumber": "0x9f2f1d",
          "blockTimestamp": "0x69b29278",
          "transactionHash": "0x26fb78c0979c2dbbac825ad41f9ab73f82838c5e9114af4b3fd84b1e40d85b5a",
          "transactionIndex": "0xcf",
          "logIndex": "0x259",
          "removed": false
        },
        {
          "address": "0xdcc1ecc92b203cd96f41d910bb38082ee7af4c5d",
          "topics": [
            "0x4c209b5fc8ad50758f13e2e1088ba56a560dff690a1c6fef26394f4c03821c4f",
            "0x000000000000000000000000c532a74256d3db42d0bf7a0400fefdbad7694008"
          ],
          "data": "0x00000000000000000000000000000000000000000000021e19e0c9bab2400000000000000000000000000000000000000000000000000000016345785d8a0000",
          "blockHash": "0x1c1ee390ba05929c6f2a5cfd97c99e5505fb54260317acc3005cdfb2f1caa267",
          "blockNumber": "0x9f2f1d",
          "blockTimestamp": "0x69b29278",
          "transactionHash": "0x26fb78c0979c2dbbac825ad41f9ab73f82838c5e9114af4b3fd84b1e40d85b5a",
          "transactionIndex": "0xcf",
          "logIndex": "0x25a",
          "removed": false
        }
      ],
      "logsBloom": "0x00000000000000000000000080000000000000000000000002020004000801000000000000000400000000000000000000000000000000000000000000000000000000000000000000002008000000000000000004000000000000008000000000000000020000000000000000040800000000000008010000000010000000000000000000000000000000000000000000000001000000080800000000000000000002000000000000000000000000080000000000000000000000000008000000000102000000000000000004020000000080000000001000000000000020000000000000000000100000000000000000000000000000400000000000000000",
      "type": "0x2",
      "transactionHash": "0x26fb78c0979c2dbbac825ad41f9ab73f82838c5e9114af4b3fd84b1e40d85b5a",
      "transactionIndex": "0xcf",
      "blockHash": "0x1c1ee390ba05929c6f2a5cfd97c99e5505fb54260317acc3005cdfb2f1caa267",
      "blockNumber": "0x9f2f1d",
      "gasUsed": "0x24011",
      "effectiveGasPrice": "0xf424c",
      "from": "0xc48e3fc74f7fcec688a19589e0f36b8f121edfce",
      "to": "0xc532a74256d3db42d0bf7a0400fefdbad7694008",
      "contractAddress": null
    }
  ],
  "libraries": [],
  "pending": [],
  "returns": {},
  "timestamp": 1773310585900,
  "chain": 11155111,
  "commit": "7bbf202"
}