{
  "transactions": [
    {
      "hash": "0xe54528d72f4f8c3b6588a5213e84879adb16d30864da62624fbd1d13b21ecb25",
      "transactionType": "CALL",
      "contractName": null,
      "contractAddress": "0x044a8172a9e9a5732a3ad1b3385013f4ddcd7d2d",
      "function": "approve(address,uint256)",
      "arguments": [
        "0xC532a74256D3Db42D0Bf7a0400fEFDbad7694008",
        "10000000000000000000"
      ],
      "transaction": {
        "from": "0xc48e3fc74f7fcec688a19589e0f36b8f121edfce",
        "to": "0x044a8172a9e9a5732a3ad1b3385013f4ddcd7d2d",
        "gas": "0xa9ab",
        "value": "0x0",
        "input": "0x095ea7b3000000000000000000000000c532a74256d3db42d0bf7a0400fefdbad76940080000000000000000000000000000000000000000000000008ac7230489e80000",
        "nonce": "0x2a",
        "chainId": "0xaa36a7"
      },
      "additionalContracts": [],
      "isFixedGasLimit": false
    },
    {
      "hash": "0xdf88b6b6ef3fb913d978820e2f6b9d1871c24ba97d6240f121e880818e57293e",
      "transactionType": "CALL",
      "contractName": null,
      "contractAddress": "0xc532a74256d3db42d0bf7a0400fefdbad7694008",
      "function": "addLiquidityETH(address,uint256,uint256,uint256,address,uint256)",
      "arguments": [
        "0x044A8172a9e9A5732A3aD1B3385013f4dDCD7D2d",
        "10000000000000000000",
        "0",
        "0",
        "0xC48E3fc74f7fCec688A19589E0F36b8f121eDfce",
        "1773229776"
      ],
      "transaction": {
        "from": "0xc48e3fc74f7fcec688a19589e0f36b8f121edfce",
        "to": "0xc532a74256d3db42d0bf7a0400fefdbad7694008",
        "gas": "0x34159",
        "value": "0x2386f26fc10000",
        "input": "0xf305d719000000000000000000000000044a8172a9e9a5732a3ad1b3385013f4ddcd7d2d0000000000000000000000000000000000000000000000008ac7230489e8000000000000000000000000000000000000000000000000000000000000000000000000000000000000000000000000000000000000000000000000000000000000000000000000000000000000c48e3fc74f7fcec688a19589e0f36b8f121edfce0000000000000000000000000000000000000000000000000000000069b156d0",
        "nonce": "0x2b",
        "chainId": "0xaa36a7"
      },
      "additionalContracts": [],
      "isFixedGasLimit": false
    }
  ],
  "receipts": [
    {
      "status": "0x1",
      "cumulativeGasUsed": "0x181ab33",
      "logs": [
        {
          "address": "0x044a8172a9e9a5732a3ad1b3385013f4ddcd7d2d",
          "topics": [
            "0x8c5be1e5ebec7d5bd14f71427d1e84f3dd0314c0f7b2291e5b200ac8c7c3b925",
            "0x000000000000000000000000c48e3fc74f7fcec688a19589e0f36b8f121edfce",
            "0x000000000000000000000000c532a74256d3db42d0bf7a0400fefdbad7694008"
          ],
          "data": "0x0000000000000000000000000000000000000000000000008ac7230489e80000",
          "blockHash": "0x00c066259af3d8eef00c3e24ee5f4d61efc1a1be9bdd02a18dc4abc75487717c",
          "blockNumber": "0x9f17cd",
          "blockTimestamp": "0x69b148fc",
          "transactionHash": "0xe54528d72f4f8c3b6588a5213e84879adb16d30864da62624fbd1d13b21ecb25",
          "transactionIndex": "0xab",
          "logIndex": "0x161",
          "removed": false
        }
      ],
      "logsBloom": "0x00000000000000000000000000000000000000000000000002020000000800000000000000000000000000000000000000000000000000000000000000200000000000000000000000000000000000000000000004000000000000000000000000000000000000000000000000040000000000000000010000000000000000000000000000000000000000000000000000000000000000000000000000000000020000000000000000000000000000000000000000000000000000000000000000000100000000000000000004000000000000000000000000000000000000000010000000000000100000000000000000000000000000000000000000000000",
      "type": "0x2",
      "transactionHash": "0xe54528d72f4f8c3b6588a5213e84879adb16d30864da62624fbd1d13b21ecb25",
      "transactionIndex": "0xab",
      "blockHash": "0x00c066259af3d8eef00c3e24ee5f4d61efc1a1be9bdd02a18dc4abc75487717c",
      "blockNumber": "0x9f17cd",
      "gasUsed": "0x7ad7",
      "effectiveGasPrice": "0xf424e",
      "from": "0xc48e3fc74f7fcec688a19589e0f36b8f121edfce",
      "to": "0x044a8172a9e9a5732a3ad1b3385013f4ddcd7d2d",
      "contractAddress": null
    },
    {
      "status": "0x1",
      "cumulativeGasUsed": "0x19bbfe7",
      "logs": [
        {
          "address": "0x044a8172a9e9a5732a3ad1b3385013f4ddcd7d2d",
          "topics": [
            "0xddf252ad1be2c89b69c2b068fc378daa952ba7f163c4a11628f55a4df523b3ef",
            "0x000000000000000000000000c48e3fc74f7fcec688a19589e0f36b8f121edfce",
            "0x000000000000000000000000dcc1ecc92b203cd96f41d910bb38082ee7af4c5d"
          ],
          "data": "0x0000000000000000000000000000000000000000000000008ac7230489e80000",
          "blockHash": "0x00c066259af3d8eef00c3e24ee5f4d61efc1a1be9bdd02a18dc4abc75487717c",
          "blockNumber": "0x9f17cd",
          "blockTimestamp": "0x69b148fc",
          "transactionHash": "0xdf88b6b6ef3fb913d978820e2f6b9d1871c24ba97d6240f121e880818e57293e",
          "transactionIndex": "0xb6",
          "logIndex": "0x183",
          "removed": false
        },
        {
          "address": "0x7b79995e5f793a07bc00c21412e50ecae098e7f9",
          "topics": [
            "0xe1fffcc4923d04b559f4d29a8bfc6cda04eb5b0d3c460751c2402c5c5cc9109c",
            "0x000000000000000000000000c532a74256d3db42d0bf7a0400fefdbad7694008"
          ],
          "data": "0x00000000000000000000000000000000000000000000000000005af3107a4000",
          "blockHash": "0x00c066259af3d8eef00c3e24ee5f4d61efc1a1be9bdd02a18dc4abc75487717c",
          "blockNumber": "0x9f17cd",
          "blockTimestamp": "0x69b148fc",
          "transactionHash": "0xdf88b6b6ef3fb913d978820e2f6b9d1871c24ba97d6240f121e880818e57293e",
          "transactionIndex": "0xb6",
          "logIndex": "0x184",
          "removed": false
        },
        {
          "address": "0x7b79995e5f793a07bc00c21412e50ecae098e7f9",
          "topics": [
            "0xddf252ad1be2c89b69c2b068fc378daa952ba7f163c4a11628f55a4df523b3ef",
            "0x000000000000000000000000c532a74256d3db42d0bf7a0400fefdbad7694008",
            "0x000000000000000000000000dcc1ecc92b203cd96f41d910bb38082ee7af4c5d"
          ],
          "data": "0x00000000000000000000000000000000000000000000000000005af3107a4000",
          "blockHash": "0x00c066259af3d8eef00c3e24ee5f4d61efc1a1be9bdd02a18dc4abc75487717c",
          "blockNumber": "0x9f17cd",
          "blockTimestamp": "0x69b148fc",
          "transactionHash": "0xdf88b6b6ef3fb913d978820e2f6b9d1871c24ba97d6240f121e880818e57293e",
          "transactionIndex": "0xb6",
          "logIndex": "0x185",
          "removed": false
        },
        {
          "address": "0xdcc1ecc92b203cd96f41d910bb38082ee7af4c5d",
          "topics": [
            "0xddf252ad1be2c89b69c2b068fc378daa952ba7f163c4a11628f55a4df523b3ef",
            "0x0000000000000000000000000000000000000000000000000000000000000000",
            "0x000000000000000000000000c48e3fc74f7fcec688a19589e0f36b8f121edfce"
          ],
          "data": "0x000000000000000000000000000000000000000000000000007058bf6e27a751",
          "blockHash": "0x00c066259af3d8eef00c3e24ee5f4d61efc1a1be9bdd02a18dc4abc75487717c",
          "blockNumber": "0x9f17cd",
          "blockTimestamp": "0x69b148fc",
          "transactionHash": "0xdf88b6b6ef3fb913d978820e2f6b9d1871c24ba97d6240f121e880818e57293e",
          "transactionIndex": "0xb6",
          "logIndex": "0x186",
          "removed": false
        },
        {
          "address": "0xdcc1ecc92b203cd96f41d910bb38082ee7af4c5d",
          "topics": [
            "0x1c411e9a96e071241c2f21f7726b17ae89e3cab4c78be50e062b03a9fffbbad1"
          ],
          "data": "0x0000000000000000000000000000000000000000000000374b57f3cef270000000000000000000000000000000000000000000000000000000243cd890b58000",
          "blockHash": "0x00c066259af3d8eef00c3e24ee5f4d61efc1a1be9bdd02a18dc4abc75487717c",
          "blockNumber": "0x9f17cd",
          "blockTimestamp": "0x69b148fc",
          "transactionHash": "0xdf88b6b6ef3fb913d978820e2f6b9d1871c24ba97d6240f121e880818e57293e",
          "transactionIndex": "0xb6",
          "logIndex": "0x187",
          "removed": false
        },
        {
          "address": "0xdcc1ecc92b203cd96f41d910bb38082ee7af4c5d",
          "topics": [
            "0x4c209b5fc8ad50758f13e2e1088ba56a560dff690a1c6fef26394f4c03821c4f",
            "0x000000000000000000000000c532a74256d3db42d0bf7a0400fefdbad7694008"
          ],
          "data": "0x0000000000000000000000000000000000000000000000008ac7230489e8000000000000000000000000000000000000000000000000000000005af3107a4000",
          "blockHash": "0x00c066259af3d8eef00c3e24ee5f4d61efc1a1be9bdd02a18dc4abc75487717c",
          "blockNumber": "0x9f17cd",
          "blockTimestamp": "0x69b148fc",
          "transactionHash": "0xdf88b6b6ef3fb913d978820e2f6b9d1871c24ba97d6240f121e880818e57293e",
          "transactionIndex": "0xb6",
          "logIndex": "0x188",
          "removed": false
        }
      ],
      "logsBloom": "0x00000000000000000000000080000000000000000000000002020004000801000000000000000400000000000000000000000000000000000000000000000000000000000000000000002008000000000000000004000000000000008000000000000000020000000000000000040800000000000008010000000010000000000000000000000000000000000000000000000001000000080800000000000000000002000000000000000000000000080000000000000000000000000008000000000102000000000000000004020000000080000000001000000000000020000000000000000000100000000000000000000000000000400000000000000000",
      "type": "0x2",
      "transactionHash": "0xdf88b6b6ef3fb913d978820e2f6b9d1871c24ba97d6240f121e880818e57293e",
      "transactionIndex": "0xb6",
      "blockHash": "0x00c066259af3d8eef00c3e24ee5f4d61efc1a1be9bdd02a18dc4abc75487717c",
      "blockNumber": "0x9f17cd",
      "gasUsed": "0x25b55",
      "effectiveGasPrice": "0xf424e",
      "from": "0xc48e3fc74f7fcec688a19589e0f36b8f121edfce",
      "to": "0xc532a74256d3db42d0bf7a0400fefdbad7694008",
      "contractAddress": null
    }
  ],
  "libraries": [],
  "pending": [],
  "returns": {},
  "timestamp": 1773226237518,
  "chain": 11155111,
  "commit": "1eb1c86"
}